{
  "contractName": "election",
  "abi": [
    {
      "inputs": [],
      "payable": false,
      "stateMutability": "nonpayable",
      "type": "constructor"
    },
    {
      "constant": true,
      "inputs": [],
      "name": "candidate",
      "outputs": [
        {
          "internalType": "string",
          "name": "",
          "type": "string"
        }
      ],
      "payable": false,
      "stateMutability": "view",
      "type": "function"
    },
    {
      "constant": true,
      "inputs": [],
      "name": "someValue",
      "outputs": [
        {
          "internalType": "uint256",
          "name": "",
          "type": "uint256"
        }
      ],
      "payable": false,
      "stateMutability": "view",
      "type": "function"
    },
    {
      "constant": false,
      "inputs": [],
      "name": "beforeEach",
      "outputs": [],
      "payable": false,
      "stateMutability": "nonpayable",
      "type": "function"
    },
    {
      "constant": false,
      "inputs": [],
      "name": "beforeEachAgain",
      "outputs": [],
      "payable": false,
      "stateMutability": "nonpayable",
      "type": "function"
    }
  ],
  "bytecode": "0x608060405234801561001057600080fd5b506040518060400160405280600981526020017f43616e64696461746500000000000000000000000000000000000000000000008152506000908051906020019061005c929190610062565b50610107565b828054600181600116156101000203166002900490600052602060002090601f016020900481019282601f106100a357805160ff19168380011785556100d1565b828001600101855582156100d1579182015b828111156100d05782518255916020019190600101906100b5565b5b5090506100de91906100e2565b5090565b61010491905b808211156101005760008160009055506001016100e8565b5090565b90565b6101fb806101166000396000f3fe608060405234801561001057600080fd5b506004361061004c5760003560e01c80634a627e611461005157806357e9bd9b1461006f5780636331e7d4146100795780636c8381f814610083575b600080fd5b610059610106565b6040518082815260200191505060405180910390f35b61007761010c565b005b61008161011e565b005b61008b610128565b6040518080602001828103825283818151815260200191508051906020019080838360005b838110156100cb5780820151818401526020810190506100b0565b50505050905090810190601f1680156100f85780820380516001836020036101000a031916815260200191505b509250505060405180910390f35b60015481565b60018060008282540192505081905550565b6005600181905550565b60008054600181600116156101000203166002900480601f0160208091040260200160405190810160405280929190818152602001828054600181600116156101000203166002900480156101be5780601f10610193576101008083540402835291602001916101be565b820191906000526020600020905b8154815290600101906020018083116101a157829003601f168201915b50505050508156fea265627a7a72315820a8e1982e21cb392938367b9a9ab6b973449c6e8e4ac25d7462c7034107c5a61864736f6c63430005100032",
  "source": "pragma solidity >=0.4.25 <0.6.0;\r\n\r\ncontract election{\r\n\t//Store candidate\r\n\t//Read Candidate\r\n\t//Constructor\r\n\tstring public candidate;\r\n\r\n\tuint public someValue;\r\n\r\n\tconstructor() public{\r\n\t\tcandidate = \"Candidate\";\r\n\t}\r\n\r\n\r\n  \tfunction beforeEach() public{\r\n    someValue = 5;\r\n  \t}\r\n\r\n\tfunction beforeEachAgain() public{\r\n    someValue += 1;\r\n  \t}\r\n\r\n}",
  "sourcePath": "C:\\Users\\JonathanR\\Documents\\GitHub\\SmartContractTest\\contracts\\election.sol",
  "compiler": {
    "name": "solc",
    "version": "0.5.16+commit.9c3226ce.Emscripten.clang"
  },
  "schemaVersion": "3.0.23",
  "updatedAt": "2020-03-12T04:47:27.516Z",
  "networkType": "ethereum",
  "devdoc": {
    "methods": {}
  },
  "userdoc": {
    "methods": {}
  }
}